{
  "_format": "hh-sol-artifact-1",
  "contractName": "BLS",
  "sourceName": "contracts/BLS.sol",
  "abi": [
    {
      "inputs": [
        {
          "internalType": "bytes32",
          "name": "domain",
          "type": "bytes32"
        },
        {
          "internalType": "bytes",
          "name": "message",
          "type": "bytes"
        }
      ],
      "name": "expandMsgTo96",
      "outputs": [
        {
          "internalType": "bytes",
          "name": "",
          "type": "bytes"
        }
      ],
      "stateMutability": "pure",
      "type": "function"
    },
    {
      "inputs": [
        {
          "internalType": "bytes32",
          "name": "domain",
          "type": "bytes32"
        },
        {
          "internalType": "bytes",
          "name": "messages",
          "type": "bytes"
        }
      ],
      "name": "hashToField",
      "outputs": [
        {
          "internalType": "uint256[2]",
          "name": "",
          "type": "uint256[2]"
        }
      ],
      "stateMutability": "view",
      "type": "function"
    },
    {
      "inputs": [
        {
          "internalType": "bytes32",
          "name": "domain",
          "type": "bytes32"
        },
        {
          "internalType": "bytes",
          "name": "message",
          "type": "bytes"
        }
      ],
      "name": "hashToPoint",
      "outputs": [
        {
          "internalType": "uint256[2]",
          "name": "",
          "type": "uint256[2]"
        }
      ],
      "stateMutability": "view",
      "type": "function"
    },
    {
      "inputs": [
        {
          "internalType": "uint256[2]",
          "name": "point",
          "type": "uint256[2]"
        }
      ],
      "name": "isOnCurveG1",
      "outputs": [
        {
          "internalType": "bool",
          "name": "_isOnCurve",
          "type": "bool"
        }
      ],
      "stateMutability": "pure",
      "type": "function"
    },
    {
      "inputs": [
        {
          "internalType": "uint256[4]",
          "name": "point",
          "type": "uint256[4]"
        }
      ],
      "name": "isOnCurveG2",
      "outputs": [
        {
          "internalType": "bool",
          "name": "_isOnCurve",
          "type": "bool"
        }
      ],
      "stateMutability": "pure",
      "type": "function"
    },
    {
      "inputs": [
        {
          "internalType": "uint256[2]",
          "name": "signature",
          "type": "uint256[2]"
        }
      ],
      "name": "isValidSignature",
      "outputs": [
        {
          "internalType": "bool",
          "name": "",
          "type": "bool"
        }
      ],
      "stateMutability": "view",
      "type": "function"
    },
    {
      "inputs": [
        {
          "internalType": "uint256",
          "name": "_x",
          "type": "uint256"
        }
      ],
      "name": "mapToPoint",
      "outputs": [
        {
          "internalType": "uint256[2]",
          "name": "p",
          "type": "uint256[2]"
        }
      ],
      "stateMutability": "pure",
      "type": "function"
    },
    {
      "inputs": [
        {
          "internalType": "uint256[2]",
          "name": "signature",
          "type": "uint256[2]"
        },
        {
          "internalType": "uint256[4][]",
          "name": "pubkeys",
          "type": "uint256[4][]"
        },
        {
          "internalType": "uint256[2][]",
          "name": "messages",
          "type": "uint256[2][]"
        }
      ],
      "name": "verifyMultiple",
      "outputs": [
        {
          "internalType": "bool",
          "name": "checkResult",
          "type": "bool"
        },
        {
          "internalType": "bool",
          "name": "callSuccess",
          "type": "bool"
        }
      ],
      "stateMutability": "view",
      "type": "function"
    },
    {
      "inputs": [
        {
          "internalType": "uint256[2]",
          "name": "signature",
          "type": "uint256[2]"
        },
        {
          "internalType": "uint256[4][]",
          "name": "pubkeys",
          "type": "uint256[4][]"
        },
        {
          "internalType": "uint256[2]",
          "name": "message",
          "type": "uint256[2]"
        }
      ],
      "name": "verifyMultipleSameMsg",
      "outputs": [
        {
          "internalType": "bool",
          "name": "checkResult",
          "type": "bool"
        },
        {
          "internalType": "bool",
          "name": "callSuccess",
          "type": "bool"
        }
      ],
      "stateMutability": "view",
      "type": "function"
    },
    {
      "inputs": [
        {
          "internalType": "uint256[2]",
          "name": "signature",
          "type": "uint256[2]"
        },
        {
          "internalType": "uint256[4]",
          "name": "pubkey",
          "type": "uint256[4]"
        },
        {
          "internalType": "uint256[2]",
          "name": "message",
          "type": "uint256[2]"
        }
      ],
      "name": "verifySingle",
      "outputs": [
        {
          "internalType": "bool",
          "name": "",
          "type": "bool"
        },
        {
          "internalType": "bool",
          "name": "",
          "type": "bool"
        }
      ],
      "stateMutability": "view",
      "type": "function"
    }
  ],
  "bytecode": "0x6080604052604051620000129062000064565b604051809103906000f0801580156200002f573d6000803e3d6000fd5b50600080546001600160a01b0319166001600160a01b03929092169190911790553480156200005d57600080fd5b5062000072565b61086680620037b283390190565b61373080620000826000396000f3fe608060405234801561001057600080fd5b50600436106100be5760003560e01c806391ec2d2b11610076578063d58e77331161005b578063d58e77331461018e578063e242cce9146101a1578063ebbdac91146101b457600080fd5b806391ec2d2b1461015b578063a850a9091461017b57600080fd5b80633e5476ce116100a75780633e5476ce146100fe5780638669026f14610128578063914137631461014857600080fd5b8063115000fe146100c3578063247dd9fb146100eb575b600080fd5b6100d66100d1366004613039565b6101c7565b60405190151581526020015b60405180910390f35b6100d66100f93660046130b7565b610418565b61011161010c366004613174565b6104ff565b6040805192151583529015156020830152016100e2565b61013b610136366004613221565b610a28565b6040516100e291906132ab565b6101116101563660046132dc565b610c0e565b61016e610169366004613221565b611217565b6040516100e29190613405565b61013b610189366004613221565b6114b4565b61013b61019c36600461341f565b6116fb565b6100d66101af3660046130b7565b611d44565b6101116101c2366004613438565b611deb565b6000815160208301517f30644e72e131a029b85045b68181585d97816a916871ca8d3c208c16d87cfd478283097f30644e72e131a029b85045b68181585d97816a916871ca8d3c208c16d87cfd4782830981828301017f30644e72e131a029b85045b68181585d97816a916871ca8d3c208c16d87cfd4782838401087f30644e72e131a029b85045b68181585d97816a916871ca8d3c208c16d87cfd4786827f30644e72e131a029b85045b68181585d97816a916871ca8d3c208c16d87cfd47038601099350507f30644e72e131a029b85045b68181585d97816a916871ca8d3c208c16d87cfd4784837f30644e72e131a029b85045b68181585d97816a916871ca8d3c208c16d87cfd470383010991507f30644e72e131a029b85045b68181585d97816a916871ca8d3c208c16d87cfd477f2b149d40ceb8aaae81be18991be06ac3b5b4c5e559dbefa33267e6dc24a138e5840894507f30644e72e131a029b85045b68181585d97816a916871ca8d3c208c16d87cfd477e9713b03af0fed4cd2cafadeed8fdf4a74fa084e52d1852e4a2bd0685c315d28308935060408701519250606087015191507f30644e72e131a029b85045b68181585d97816a916871ca8d3c208c16d87cfd4780837f30644e72e131a029b85045b68181585d97816a916871ca8d3c208c16d87cfd470385087f30644e72e131a029b85045b68181585d97816a916871ca8d3c208c16d87cfd478486080990507f30644e72e131a029b85045b68181585d97816a916871ca8d3c208c16d87cfd47828460011b0994149290931491909116949350505050565b80516000907f30644e72e131a029b85045b68181585d97816a916871ca8d3c208c16d87cfd4711158061046f575060208201517f30644e72e131a029b85045b68181585d97816a916871ca8d3c208c16d87cfd4711155b1561047c57506000919050565b6040517fe242cce9000000000000000000000000000000000000000000000000000000008152309063e242cce9906104b89085906004016132ab565b602060405180830381865afa1580156104d5573d6000803e3d6000fd5b505050506040513d601f19601f820116820180604052508101906104f991906134b4565b92915050565b6000808380610595576040517f08c379a000000000000000000000000000000000000000000000000000000000815260206004820152602160248201527f424c533a206e756d626572206f66207075626c6963206b6579206973207a657260448201527f6f0000000000000000000000000000000000000000000000000000000000000060648201526084015b60405180910390fd5b60006105a2826001613505565b6105ad90600661351d565b905060008167ffffffffffffffff8111156105ca576105ca612f92565b6040519080825280602002602001820160405280156105f3578160200160208202803683370190505b50905088600060200201358160008151811061061157610611613485565b602090810291909101015288600160200201358160018151811061063757610637613485565b6020026020010181815250507f198e9393920d483a7260bfb731fb5d25f1aa493335a9e71297e485b7aef312c28160028151811061067757610677613485565b6020026020010181815250507f1800deef121f1e76426a00665e5c4479674322d4f75edadd46debd5cd992f6ed816003815181106106b7576106b7613485565b6020026020010181815250507f275dc4a288d1afb3cbb1ac09187524c7db36395df7be3b99e673b13a075a65ec816004815181106106f7576106f7613485565b6020026020010181815250507f1d9befcd05a5323e6da4d435f3b617cdb3af83285c2df711ef39c01571827f9d8160058151811061073757610737613485565b60200260200101818152505060005b838110156109565786358261075c83600661351d565b610767906006613505565b8151811061077757610777613485565b602090810291909101015286600160200201358261079683600661351d565b6107a1906007613505565b815181106107b1576107b1613485565b6020026020010181815250508888828181106107cf576107cf613485565b9050608002016001600481106107e7576107e7613485565b6020020135826107f883600661351d565b610803906008613505565b8151811061081357610813613485565b60200260200101818152505088888281811061083157610831613485565b90506080020160006004811061084957610849613485565b60200201358261085a83600661351d565b610865906009613505565b8151811061087557610875613485565b60200260200101818152505088888281811061089357610893613485565b9050608002016003600481106108ab576108ab613485565b6020020135826108bc83600661351d565b6108c790600a613505565b815181106108d7576108d7613485565b6020026020010181815250508888828181106108f5576108f5613485565b90506080020160026004811061090d5761090d613485565b60200201358261091e83600661351d565b61092990600b613505565b8151811061093957610939613485565b60209081029190910101528061094e8161355a565b915050610746565b5061095f612f38565b6000805473ffffffffffffffffffffffffffffffffffffffff16634e79f8ca610989876001613505565b6040518263ffffffff1660e01b81526004016109a791815260200190565b602060405180830381865afa1580156109c4573d6000803e3d6000fd5b505050506040513d601f19601f820116820180604052508101906109e89190613592565b90506020826020860260208601600885fa955085610a1157600080965096505050505050610a1f565b505115159450600193505050505b94509492505050565b610a30612f56565b6040517f91ec2d2b00000000000000000000000000000000000000000000000000000000815260009030906391ec2d2b90610a7190879087906004016135ab565b600060405180830381865afa158015610a8e573d6000803e3d6000fd5b505050506040513d6000823e601f3d9081017fffffffffffffffffffffffffffffffffffffffffffffffffffffffffffffffe0168201604052610ad491908101906135cc565b90506000806000806018850177ffffffffffffffffffffffffffffffffffffffffffffffff815116935060308601905077ffffffffffffffffffffffffffffffffffffffffffffffff81511694507f30644e72e131a029b85045b68181585d97816a916871ca8d3c208c16d87cfd47857f30644e72e131a029b85045b68181585d97816a916871ca8d3c208c16d87cfd4778010000000000000000000000000000000000000000000000008709086048870151606088015177ffffffffffffffffffffffffffffffffffffffffffffffff908116975016945092507f30644e72e131a029b85045b68181585d97816a916871ca8d3c208c16d87cfd47905084817801000000000000000000000000000000000000000000000000860908604080518082019091529283526020830152509695505050505050565b6000808480610c9f576040517f08c379a000000000000000000000000000000000000000000000000000000000815260206004820152602160248201527f424c533a206e756d626572206f66207075626c6963206b6579206973207a657260448201527f6f00000000000000000000000000000000000000000000000000000000000000606482015260840161058c565b808414610d2e576040517f08c379a000000000000000000000000000000000000000000000000000000000815260206004820152603560248201527f424c533a206e756d626572206f66207075626c6963206b65797320616e64206d60448201527f65737361676573206d75737420626520657175616c0000000000000000000000606482015260840161058c565b6000610d3b826001613505565b610d4690600661351d565b905060008167ffffffffffffffff811115610d6357610d63612f92565b604051908082528060200260200182016040528015610d8c578160200160208202803683370190505b509050896000602002013581600081518110610daa57610daa613485565b6020908102919091010152896001602002013581600181518110610dd057610dd0613485565b6020026020010181815250507f198e9393920d483a7260bfb731fb5d25f1aa493335a9e71297e485b7aef312c281600281518110610e1057610e10613485565b6020026020010181815250507f1800deef121f1e76426a00665e5c4479674322d4f75edadd46debd5cd992f6ed81600381518110610e5057610e50613485565b6020026020010181815250507f275dc4a288d1afb3cbb1ac09187524c7db36395df7be3b99e673b13a075a65ec81600481518110610e9057610e90613485565b6020026020010181815250507f1d9befcd05a5323e6da4d435f3b617cdb3af83285c2df711ef39c01571827f9d81600581518110610ed057610ed0613485565b60200260200101818152505060005b8381101561114457878782818110610ef957610ef9613485565b905060400201600060028110610f1157610f11613485565b602002013582610f2283600661351d565b610f2d906006613505565b81518110610f3d57610f3d613485565b602002602001018181525050878782818110610f5b57610f5b613485565b905060400201600160028110610f7357610f73613485565b602002013582610f8483600661351d565b610f8f906007613505565b81518110610f9f57610f9f613485565b602002602001018181525050898982818110610fbd57610fbd613485565b905060800201600160048110610fd557610fd5613485565b602002013582610fe683600661351d565b610ff1906008613505565b8151811061100157611001613485565b60200260200101818152505089898281811061101f5761101f613485565b90506080020160006004811061103757611037613485565b60200201358261104883600661351d565b611053906009613505565b8151811061106357611063613485565b60200260200101818152505089898281811061108157611081613485565b90506080020160036004811061109957611099613485565b6020020135826110aa83600661351d565b6110b590600a613505565b815181106110c5576110c5613485565b6020026020010181815250508989828181106110e3576110e3613485565b9050608002016002600481106110fb576110fb613485565b60200201358261110c83600661351d565b61111790600b613505565b8151811061112757611127613485565b60209081029190910101528061113c8161355a565b915050610edf565b5061114d612f38565b6000805473ffffffffffffffffffffffffffffffffffffffff16634e79f8ca611177876001613505565b6040518263ffffffff1660e01b815260040161119591815260200190565b602060405180830381865afa1580156111b2573d6000803e3d6000fd5b505050506040513d601f19601f820116820180604052508101906111d69190613592565b90506020826020860260208601600885fa9550856111ff5760008096509650505050505061120d565b505115159450600193505050505b9550959350505050565b80516060906000611229826020613505565b611234906040613505565b61123f906004613505565b67ffffffffffffffff81111561125757611257612f92565b6040519080825280601f01601f191660200182016040528015611281576020820181803683370190505b5060408051606080825260808201909252919250600091906020820181803683370190505090506060820160005b848110156112c957602081880181015183830152016112af565b50830160008153600101606081536001016000815360018101879052602101602081535060006002836040516112ff9190613643565b602060405180830381855afa15801561131c573d6000803e3d6000fd5b5050506040513d601f19601f8201168201806040525081019061133f9190613592565b90506000604294508484528160208501526001604085015360418401889052602060618501536002846040516113759190613643565b602060405180830381855afa158015611392573d6000803e3d6000fd5b5050506040513d601f19601f820116820180604052508101906113b59190613592565b9050806020840152808218806020860152506002604085015360418401889052602060618501536002846040516113ec9190613643565b602060405180830381855afa158015611409573d6000803e3d6000fd5b5050506040513d601f19601f8201168201806040525081019061142c9190613592565b9050806040840152808218806020860152506003604085015360418401889052602060618501536002846040516114639190613643565b602060405180830381855afa158015611480573d6000803e3d6000fd5b5050506040513d601f19601f820116820180604052508101906114a39190613592565b606084015250909695505050505050565b6114bc612f56565b6040517f8669026f0000000000000000000000000000000000000000000000000000000081526000903090638669026f906114fd90879087906004016135ab565b6040805180830381865afa158015611519573d6000803e3d6000fd5b505050506040513d601f19601f8201168201806040525081019061153d919061365f565b80516040517fd58e77330000000000000000000000000000000000000000000000000000000081526004810191909152909150600090309063d58e7733906024016040805180830381865afa15801561159a573d6000803e3d6000fd5b505050506040513d601f19601f820116820180604052508101906115be919061365f565b60208301516040517fd58e77330000000000000000000000000000000000000000000000000000000081526004810191909152909150600090309063d58e7733906024016040805180830381865afa15801561161e573d6000803e3d6000fd5b505050506040513d601f19601f82011682018060405250810190611642919061365f565b905061164c612f74565b825181526020808401518282015282516040808401919091529083015160608301526000908460808460066107d05a03fa9050808061168757fe5b50806116ef576040517f08c379a000000000000000000000000000000000000000000000000000000000815260206004820152601760248201527f424c533a20626e206164642063616c6c206661696c6564000000000000000000604482015260640161058c565b50919695505050505050565b611703612f56565b7f30644e72e131a029b85045b68181585d97816a916871ca8d3c208c16d87cfd4782106117b2576040517f08c379a000000000000000000000000000000000000000000000000000000000815260206004820152602360248201527f6d6170546f506f696e7446543a20696e76616c6964206669656c6420656c656d60448201527f656e740000000000000000000000000000000000000000000000000000000000606482015260840161058c565b8160006117be82612052565b91505060007f30644e72e131a029b85045b68181585d97816a916871ca8d3c208c16d87cfd47806117f1576117f16136b4565b83840990507f30644e72e131a029b85045b68181585d97816a916871ca8d3c208c16d87cfd4760048208905060007f30644e72e131a029b85045b68181585d97816a916871ca8d3c208c16d87cfd4777b3c4d79d41a91759a9e4c7e359b6b89eaec68e62effffffd8509905060007f30644e72e131a029b85045b68181585d97816a916871ca8d3c208c16d87cfd47838309905061188e8161208d565b90507f30644e72e131a029b85045b68181585d97816a916871ca8d3c208c16d87cfd4782830991507f30644e72e131a029b85045b68181585d97816a916871ca8d3c208c16d87cfd4781830991507f30644e72e131a029b85045b68181585d97816a916871ca8d3c208c16d87cfd4782860991507f30644e72e131a029b85045b68181585d97816a916871ca8d3c208c16d87cfd4761194d837f30644e72e131a029b85045b68181585d97816a916871ca8d3c208c16d87cfd476136e3565b7759e26bcea0d48bacd4f263f1acdb5c4f5763473177fffffe0894507f30644e72e131a029b85045b68181585d97816a916871ca8d3c208c16d87cfd4785860991507f30644e72e131a029b85045b68181585d97816a916871ca8d3c208c16d87cfd4785830991507f30644e72e131a029b85045b68181585d97816a916871ca8d3c208c16d87cfd4760038308915060006119e783612052565b90935090508015611a415784611a2457611a21837f30644e72e131a029b85045b68181585d97816a916871ca8d3c208c16d87cfd476136e3565b92505b505060408051808201909152938452602084015250909392505050565b7f30644e72e131a029b85045b68181585d97816a916871ca8d3c208c16d87cfd4760018708611a90907f30644e72e131a029b85045b68181585d97816a916871ca8d3c208c16d87cfd476136e3565b95507f30644e72e131a029b85045b68181585d97816a916871ca8d3c208c16d87cfd4786870992507f30644e72e131a029b85045b68181585d97816a916871ca8d3c208c16d87cfd4786840992507f30644e72e131a029b85045b68181585d97816a916871ca8d3c208c16d87cfd47600384089250611b0e83612052565b90935090508015611b485784611a2457611a21837f30644e72e131a029b85045b68181585d97816a916871ca8d3c208c16d87cfd476136e3565b7f30644e72e131a029b85045b68181585d97816a916871ca8d3c208c16d87cfd4784850995507f30644e72e131a029b85045b68181585d97816a916871ca8d3c208c16d87cfd4786870995507f30644e72e131a029b85045b68181585d97816a916871ca8d3c208c16d87cfd4782870995507f30644e72e131a029b85045b68181585d97816a916871ca8d3c208c16d87cfd4782870995507f30644e72e131a029b85045b68181585d97816a916871ca8d3c208c16d87cfd476001870895507f30644e72e131a029b85045b68181585d97816a916871ca8d3c208c16d87cfd4786870992507f30644e72e131a029b85045b68181585d97816a916871ca8d3c208c16d87cfd4786840992507f30644e72e131a029b85045b68181585d97816a916871ca8d3c208c16d87cfd47600384089250611c8383612052565b909350905080611d15576040517f08c379a000000000000000000000000000000000000000000000000000000000815260206004820152602260248201527f424c533a20626164206674206d617070696e6720696d706c656d656e7461746960448201527f6f6e000000000000000000000000000000000000000000000000000000000000606482015260840161058c565b84611a2457611a21837f30644e72e131a029b85045b68181585d97816a916871ca8d3c208c16d87cfd476136e3565b6000815160208301517f30644e72e131a029b85045b68181585d97816a916871ca8d3c208c16d87cfd478283097f30644e72e131a029b85045b68181585d97816a916871ca8d3c208c16d87cfd4783820990507f30644e72e131a029b85045b68181585d97816a916871ca8d3c208c16d87cfd476003820890507f30644e72e131a029b85045b68181585d97816a916871ca8d3c208c16d87cfd4782830914949350505050565b600080600060405180610180016040528087600060028110611e0f57611e0f613485565b6020020135815260200187600160028110611e2c57611e2c613485565b602002013581526020017f198e9393920d483a7260bfb731fb5d25f1aa493335a9e71297e485b7aef312c281526020017f1800deef121f1e76426a00665e5c4479674322d4f75edadd46debd5cd992f6ed81526020017f275dc4a288d1afb3cbb1ac09187524c7db36395df7be3b99e673b13a075a65ec81526020017f1d9befcd05a5323e6da4d435f3b617cdb3af83285c2df711ef39c01571827f9d815260200185600060028110611ee157611ee1613485565b6020020135815260200185600160028110611efe57611efe613485565b6020020135815260200186600160048110611f1b57611f1b613485565b6020020135815260200186600060048110611f3857611f38613485565b6020020135815260200186600360048110611f5557611f55613485565b6020020135815260200186600260048110611f7257611f72613485565b602002013590529050611f83612f38565b600080546040517f4e79f8ca0000000000000000000000000000000000000000000000000000000081526002600482015273ffffffffffffffffffffffffffffffffffffffff90911690634e79f8ca90602401602060405180830381865afa158015611ff3573d6000803e3d6000fd5b505050506040513d601f19601f820116820180604052508101906120179190613592565b9050600060208361018086600886fa90508061203d57600080955095505050505061204a565b5050511515925060019150505b935093915050565b60008061205e83612098565b9150827f30644e72e131a029b85045b68181585d97816a916871ca8d3c208c16d87cfd47838409149050915091565b60006104f9826127df565b60007f30644e72e131a029b85045b68181585d97816a916871ca8d3c208c16d87cfd478083840991508083830981838209828283098385830984848309858484098684850997508684840987858409945087898a09985087898a09985087898a09985087898a09985087898a09985087878a09985087898a09985087898a09985087898a099850878a8a09985087898a09985087898a09985087898a09985087898a099850878a8a09985087898a09985087898a09985087898a09985087898a09985087898a09985087848a09985087898a09985087898a09985087898a09985087898a09985087898a09985087848a09985087898a09985087898a09985087898a099850878a8a09985087898a09985087898a09985087898a09985087898a09985087848a09985087898a09985087898a09985087898a09985087898a09985087898a099850878a8a09985087898a09985087898a09985087898a09985087898a09985087878a09985087898a09985087898a09985087898a09985087898a09985087898a09985087898a09985087898a09985087818a09985087898a09985087898a09985087898a09985087898a09985087898a09985087898a09985087898a09985087898a09985087898a09985087898a09985087868a09985087898a09985087898a09985087898a09985087898a09985087878a09985087898a09985087898a09985087898a09985087898a09985087848a09985087898a09985087898a09985087898a09985087898a09985087898a09985087898a09985087898a09985087868a09985087898a09985087898a09985087898a09985087898a09985087898a09985087898a099850878a8a09985087898a09985087898a09985087898a09985087898a09985087898a09985087898a09985087898a09985087828a09985087898a09985087898a09985087898a09985087898a09985087898a09985087818a09985087898a09985087898a09985087898a09985087868a09985087898a09985087898a09985087898a09985087898a09985087898a09985087898a09985087898a09985087898a09985087878a09985087898a09985087898a09985087898a09985087898a09985087898a09985087898a09985087898a09985087898a09985087898a09985087868a09985087898a09985087898a09985087898a09985087878a09985087898a09985087898a09985087898a09985087898a09985087898a09985087898a09985087898a09985087898a09985087828a09985087898a09985087898a09985087898a09985087898a09985087828a09985087898a09985087898a09985087898a09985087898a09985087898a09985087868a09985087898a09985087898a09985087898a09985087848a09985087898a09985087898a09985087898a09985087898a09985087898a09985087898a09985087898a09985087898a09985087898a09985087898a09985087828a09985087898a09985087898a09985087898a09985087898a09985087868a09985087898a09985087898a09985087898a09985087898a09985087898a09985087838a09985087898a09985087898a09985087898a09985087898a09985087898a09985087898a09985087898a09985087828a09985087898a09985087898a099850878a8a09985087898a09985087898a09985087898a09985087898a09985087898a09985087898a09985087898a09985087848a09985087898a09985087898a09985087898a09985087898a09985087898a09985087898a09985087848a09985087898a09985087898a09985087898a09985087898a09985087898a09985087868a09985087898a09985087898a099850878a8a09985087898a09985087898a09985087898a09985087898a09985087898a09985087898a09985087898a09985087818a09985050868889099750868889099750868889099750868889099750868889099750868889099750868489099750868889099750868889099750868889099750868889099750868889099750868989099750868889099750868889099750868889099750868889099750868889099750868889099750868989099750868889099750868889099750868889099750868889099750868889099750868689099750868889099750868889099750868889099750868889099750868889099750868889099750868889099750868889099750868889099750868189099750508587880996508587880996508587880996508585880996508587880996508587880996508587880996508585880996508587880996508587880996508587880996508587880996508587880996508587880996508587880996508587880996508583880996508587880996508587880996508587880996508587880996508581880996508587880996508587880996508587880996508587880996508583880996508587880996508587880996508587880996508584880996508587880996508587880996508587880996508587880996508587880996508581880996505050505050808283099392505050565b60007f30644e72e131a029b85045b68181585d97816a916871ca8d3c208c16d87cfd478083840991508083830981838209828283098385830984848309858484098684850997508684840987858409945087898a09985087898a09985087898a09985087898a09985087898a09985087878a09985087898a09985087898a09985087898a099850878a8a09985087898a09985087898a09985087898a09985087898a099850878a8a09985087898a09985087898a09985087898a09985087898a09985087898a09985087848a09985087898a09985087898a09985087898a09985087898a09985087898a09985087848a09985087898a09985087898a09985087898a099850878a8a09985087898a09985087898a09985087898a09985087898a09985087848a09985087898a09985087898a09985087898a09985087898a09985087898a099850878a8a09985087898a09985087898a09985087898a09985087898a09985087878a09985087898a09985087898a09985087898a09985087898a09985087898a09985087898a09985087898a09985087818a09985087898a09985087898a09985087898a09985087898a09985087898a09985087898a09985087898a09985087898a09985087898a09985087898a09985087868a09985087898a09985087898a09985087898a09985087898a09985087878a09985087898a09985087898a09985087898a09985087898a09985087848a09985087898a09985087898a09985087898a09985087898a09985087898a09985087898a09985087898a09985087868a09985087898a09985087898a09985087898a09985087898a09985087898a09985087898a099850878a8a09985087898a09985087898a09985087898a09985087898a09985087898a09985087898a09985087898a09985087828a09985087898a09985087898a09985087898a09985087898a09985087898a09985087818a09985087898a09985087898a09985087898a09985087868a09985087898a09985087898a09985087898a09985087898a09985087898a09985087898a09985087898a09985087898a09985087878a09985087898a09985087898a09985087898a09985087898a09985087898a09985087898a09985087898a09985087898a09985087898a09985087868a09985087898a09985087898a09985087898a09985087878a09985087898a09985087898a09985087898a09985087898a09985087898a09985087898a09985087898a09985087898a09985087828a09985087898a09985087898a09985087898a09985087898a09985087828a09985087898a09985087898a09985087898a09985087898a09985087898a09985087868a09985087898a09985087898a09985087898a09985087848a09985087898a09985087898a09985087898a09985087898a09985087898a09985087898a09985087898a09985087898a09985087898a09985087898a09985087828a09985087898a09985087898a09985087898a09985087898a09985087868a09985087898a09985087898a09985087898a09985087898a09985087898a09985087838a09985087898a09985087898a09985087898a09985087898a09985087898a09985087898a09985087898a09985087828a09985087898a09985087898a099850878a8a09985087898a09985087898a09985087898a09985087898a09985087898a09985087898a09985087898a09985087848a09985087898a09985087898a09985087898a09985087898a09985087898a09985087898a09985087848a09985087898a09985087898a09985087898a09985087898a09985087898a09985087868a09985087898a09985087898a099850878a8a09985087898a09985087898a09985087898a09985087898a09985087898a09985087898a09985087898a09985087818a09985050868889099750868889099750868889099750868889099750868889099750868889099750868489099750868889099750868889099750868889099750868889099750868889099750868989099750868889099750868889099750868889099750868889099750868889099750868889099750868989099750868889099750868889099750868889099750868889099750868889099750868689099750868889099750868889099750868889099750868889099750868889099750868889099750868889099750868889099750868889099750868189099750508587880996508587880996508587880996508585880996508587880996508587880996508587880996508585880996508587880996508587880996508587880996508587880996508587880996508587880996508587880996508587880996508583880996508587880996508587880996508587880996508587880996508581880996505050838586099450838586099450838586099450838586099450838186099450508284850993508284850993508284850993508281850993508284850993508284850993508285850993508284850993508284850993508284850993508284850993508284850993508284850993508281850995945050505050565b60405180602001604052806001906020820280368337509192915050565b60405180604001604052806002906020820280368337509192915050565b60405180608001604052806004906020820280368337509192915050565b7f4e487b7100000000000000000000000000000000000000000000000000000000600052604160045260246000fd5b6040805190810167ffffffffffffffff81118282101715612fe457612fe4612f92565b60405290565b604051601f82017fffffffffffffffffffffffffffffffffffffffffffffffffffffffffffffffe016810167ffffffffffffffff8111828210171561303157613031612f92565b604052919050565b60006080828403121561304b57600080fd5b82601f83011261305a57600080fd5b6040516080810181811067ffffffffffffffff8211171561307d5761307d612f92565b60405280608084018581111561309257600080fd5b845b818110156130ac578035835260209283019201613094565b509195945050505050565b6000604082840312156130c957600080fd5b82601f8301126130d857600080fd5b6130e0612fc1565b8060408401858111156130f257600080fd5b845b8181101561310c5780358452602093840193016130f4565b509095945050505050565b80604081018310156104f957600080fd5b60008083601f84011261313a57600080fd5b50813567ffffffffffffffff81111561315257600080fd5b6020830191508360208260071b850101111561316d57600080fd5b9250929050565b60008060008060a0858703121561318a57600080fd5b6131948686613117565b9350604085013567ffffffffffffffff8111156131b057600080fd5b6131bc87828801613128565b90945092506131d090508660608701613117565b905092959194509250565b600067ffffffffffffffff8211156131f5576131f5612f92565b50601f017fffffffffffffffffffffffffffffffffffffffffffffffffffffffffffffffe01660200190565b6000806040838503121561323457600080fd5b82359150602083013567ffffffffffffffff81111561325257600080fd5b8301601f8101851361326357600080fd5b8035613276613271826131db565b612fea565b81815286602083850101111561328b57600080fd5b816020840160208301376000602083830101528093505050509250929050565b60408101818360005b60028110156132d35781518352602092830192909101906001016132b4565b50505092915050565b6000806000806000608086880312156132f457600080fd5b6132fe8787613117565b9450604086013567ffffffffffffffff8082111561331b57600080fd5b61332789838a01613128565b9096509450606088013591508082111561334057600080fd5b818801915088601f83011261335457600080fd5b81358181111561336357600080fd5b8960208260061b850101111561337857600080fd5b9699959850939650602001949392505050565b60005b838110156133a657818101518382015260200161338e565b838111156133b5576000848401525b50505050565b600081518084526133d381602086016020860161338b565b601f017fffffffffffffffffffffffffffffffffffffffffffffffffffffffffffffffe0169290920160200192915050565b60208152600061341860208301846133bb565b9392505050565b60006020828403121561343157600080fd5b5035919050565b6000806000610100848603121561344e57600080fd5b6134588585613117565b925060c084018581111561346b57600080fd5b60408501925061347b8682613117565b9150509250925092565b7f4e487b7100000000000000000000000000000000000000000000000000000000600052603260045260246000fd5b6000602082840312156134c657600080fd5b8151801515811461341857600080fd5b7f4e487b7100000000000000000000000000000000000000000000000000000000600052601160045260246000fd5b60008219821115613518576135186134d6565b500190565b6000817fffffffffffffffffffffffffffffffffffffffffffffffffffffffffffffffff0483118215151615613555576135556134d6565b500290565b60007fffffffffffffffffffffffffffffffffffffffffffffffffffffffffffffffff820361358b5761358b6134d6565b5060010190565b6000602082840312156135a457600080fd5b5051919050565b8281526040602082015260006135c460408301846133bb565b949350505050565b6000602082840312156135de57600080fd5b815167ffffffffffffffff8111156135f557600080fd5b8201601f8101841361360657600080fd5b8051613614613271826131db565b81815285602083850101111561362957600080fd5b61363a82602083016020860161338b565b95945050505050565b6000825161365581846020870161338b565b9190910192915050565b60006040828403121561367157600080fd5b82601f83011261368057600080fd5b613688612fc1565b80604084018581111561369a57600080fd5b845b8181101561310c57805184526020938401930161369c565b7f4e487b7100000000000000000000000000000000000000000000000000000000600052601260045260246000fd5b6000828210156136f5576136f56134d6565b50039056fea2646970667358221220689ebad4b6e6b7f7a2c9e41557212a50992786ef3bb9de323de159c85368624d64736f6c634300080d0033608060405261afc86000556184d060015534801561001c57600080fd5b5061083a8061002c6000396000f3fe608060405234801561001057600080fd5b506004361061004c5760003560e01c80634e79f8ca146100515780639382255714610076578063c04062261461007f578063ebfd94b214610089575b600080fd5b61006461005f366004610750565b610092565b60405190815260200160405180910390f35b61006460005481565b6100876100b3565b005b61006460015481565b600080546001546100a39084610798565b6100ad91906107d5565b92915050565b6100bb6100bd565b565b60006100c76100f5565b905060006100d36103c6565b90506100df82826107ed565b60018190556100ee90836107ed565b6000555050565b6000806040518060c0016040528060018152602001600281526020017f198e9393920d483a7260bfb731fb5d25f1aa493335a9e71297e485b7aef312c281526020017f1800deef121f1e76426a00665e5c4479674322d4f75edadd46debd5cd992f6ed81526020017f090689d0585ff075ec9e99ad690c3395bc4b313370b38ef355acdadcd122975b81526020017f12c85ea5db8c6deb4aab71808dcb408fe3d1e7690c43d37b4ce6cc0166fa7daa81525090506101b1610732565b6000806107d05a6101c291906107ed565b90506107d05a1161025a576040517f08c379a000000000000000000000000000000000000000000000000000000000815260206004820152603d60248201527f424e50616972696e67507265636f6d70696c65436f7374457374696d61746f7260448201527f3a206e6f7420656e6f756768206761732c2073696e676c65207061697200000060648201526084015b60405180910390fd5b60005a905060208460c087600886fa925060005a61027890836107ed565b905083610307576040517f08c379a000000000000000000000000000000000000000000000000000000000815260206004820152603c60248201527f424e50616972696e67507265636f6d70696c65436f7374457374696d61746f7260448201527f3a2073696e676c6520706169722063616c6c206973206661696c6564000000006064820152608401610251565b8451156103bc576040517f08c379a000000000000000000000000000000000000000000000000000000000815260206004820152604360248201527f424e50616972696e67507265636f6d70696c65436f7374457374696d61746f7260448201527f3a2073696e676c6520706169722063616c6c20726573756c74206d757374206260648201527f6520300000000000000000000000000000000000000000000000000000000000608482015260a401610251565b9695505050505050565b60008060405180610180016040528060018152602001600281526020017f198e9393920d483a7260bfb731fb5d25f1aa493335a9e71297e485b7aef312c281526020017f1800deef121f1e76426a00665e5c4479674322d4f75edadd46debd5cd992f6ed81526020017f090689d0585ff075ec9e99ad690c3395bc4b313370b38ef355acdadcd122975b81526020017f12c85ea5db8c6deb4aab71808dcb408fe3d1e7690c43d37b4ce6cc0166fa7daa815260200160018152602001600281526020017f198e9393920d483a7260bfb731fb5d25f1aa493335a9e71297e485b7aef312c281526020017f1800deef121f1e76426a00665e5c4479674322d4f75edadd46debd5cd992f6ed81526020017f275dc4a288d1afb3cbb1ac09187524c7db36395df7be3b99e673b13a075a65ec81526020017f1d9befcd05a5323e6da4d435f3b617cdb3af83285c2df711ef39c01571827f9d8152509050610529610732565b6000806107d05a61053a91906107ed565b90506107d05a116105cd576040517f08c379a000000000000000000000000000000000000000000000000000000000815260206004820152603d60248201527f424e50616972696e67507265636f6d70696c65436f7374457374696d61746f7260448201527f3a206e6f7420656e6f756768206761732c20636f75706c6520706169720000006064820152608401610251565b60005a905060208461018087600886fa925060005a6105ec90836107ed565b90508361067b576040517f08c379a000000000000000000000000000000000000000000000000000000000815260206004820152603c60248201527f424e50616972696e67507265636f6d70696c65436f7374457374696d61746f7260448201527f3a20636f75706c6520706169722063616c6c206973206661696c6564000000006064820152608401610251565b84516001146103bc576040517f08c379a000000000000000000000000000000000000000000000000000000000815260206004820152604360248201527f424e50616972696e67507265636f6d70696c65436f7374457374696d61746f7260448201527f3a20636f75706c6520706169722063616c6c20726573756c74206d757374206260648201527f6520310000000000000000000000000000000000000000000000000000000000608482015260a401610251565b60405180602001604052806001906020820280368337509192915050565b60006020828403121561076257600080fd5b5035919050565b7f4e487b7100000000000000000000000000000000000000000000000000000000600052601160045260246000fd5b6000817fffffffffffffffffffffffffffffffffffffffffffffffffffffffffffffffff04831182151516156107d0576107d0610769565b500290565b600082198211156107e8576107e8610769565b500190565b6000828210156107ff576107ff610769565b50039056fea2646970667358221220708027d9e347e3e62c1ea85e7966d8b1a1a87c8410a9a86107b095c8122c496164736f6c634300080d0033",
  "linkReferences": {},
  "deployedLinkReferences": {}
}